{
  "_format": "hh-sol-artifact-1",
  "contractName": "VIPPass",
  "sourceName": "contracts/VIPpass.sol",
  "abi": [
    {
      "inputs": [],
      "stateMutability": "nonpayable",
      "type": "constructor"
    },
    {
      "inputs": [],
      "name": "ERC721EnumerableForbiddenBatchMint",
      "type": "error"
    },
    {
      "inputs": [
        {
          "internalType": "address",
          "name": "sender",
          "type": "address"
        },
        {
          "internalType": "uint256",
          "name": "tokenId",
          "type": "uint256"
        },
        {
          "internalType": "address",
          "name": "owner",
          "type": "address"
        }
      ],
      "name": "ERC721IncorrectOwner",
      "type": "error"
    },
    {
      "inputs": [
        {
          "internalType": "address",
          "name": "operator",
          "type": "address"
        },
        {
          "internalType": "uint256",
          "name": "tokenId",
          "type": "uint256"
        }
      ],
      "name": "ERC721InsufficientApproval",
      "type": "error"
    },
    {
      "inputs": [
        {
          "internalType": "address",
          "name": "approver",
          "type": "address"
        }
      ],
      "name": "ERC721InvalidApprover",
      "type": "error"
    },
    {
      "inputs": [
        {
          "internalType": "address",
          "name": "operator",
          "type": "address"
        }
      ],
      "name": "ERC721InvalidOperator",
      "type": "error"
    },
    {
      "inputs": [
        {
          "internalType": "address",
          "name": "owner",
          "type": "address"
        }
      ],
      "name": "ERC721InvalidOwner",
      "type": "error"
    },
    {
      "inputs": [
        {
          "internalType": "address",
          "name": "receiver",
          "type": "address"
        }
      ],
      "name": "ERC721InvalidReceiver",
      "type": "error"
    },
    {
      "inputs": [
        {
          "internalType": "address",
          "name": "sender",
          "type": "address"
        }
      ],
      "name": "ERC721InvalidSender",
      "type": "error"
    },
    {
      "inputs": [
        {
          "internalType": "uint256",
          "name": "tokenId",
          "type": "uint256"
        }
      ],
      "name": "ERC721NonexistentToken",
      "type": "error"
    },
    {
      "inputs": [
        {
          "internalType": "address",
          "name": "owner",
          "type": "address"
        },
        {
          "internalType": "uint256",
          "name": "index",
          "type": "uint256"
        }
      ],
      "name": "ERC721OutOfBoundsIndex",
      "type": "error"
    },
    {
      "inputs": [
        {
          "internalType": "address",
          "name": "owner",
          "type": "address"
        }
      ],
      "name": "OwnableInvalidOwner",
      "type": "error"
    },
    {
      "inputs": [
        {
          "internalType": "address",
          "name": "account",
          "type": "address"
        }
      ],
      "name": "OwnableUnauthorizedAccount",
      "type": "error"
    },
    {
      "anonymous": false,
      "inputs": [
        {
          "indexed": true,
          "internalType": "address",
          "name": "owner",
          "type": "address"
        },
        {
          "indexed": true,
          "internalType": "address",
          "name": "approved",
          "type": "address"
        },
        {
          "indexed": true,
          "internalType": "uint256",
          "name": "tokenId",
          "type": "uint256"
        }
      ],
      "name": "Approval",
      "type": "event"
    },
    {
      "anonymous": false,
      "inputs": [
        {
          "indexed": true,
          "internalType": "address",
          "name": "owner",
          "type": "address"
        },
        {
          "indexed": true,
          "internalType": "address",
          "name": "operator",
          "type": "address"
        },
        {
          "indexed": false,
          "internalType": "bool",
          "name": "approved",
          "type": "bool"
        }
      ],
      "name": "ApprovalForAll",
      "type": "event"
    },
    {
      "anonymous": false,
      "inputs": [
        {
          "indexed": true,
          "internalType": "address",
          "name": "previousOwner",
          "type": "address"
        },
        {
          "indexed": true,
          "internalType": "address",
          "name": "newOwner",
          "type": "address"
        }
      ],
      "name": "OwnershipTransferred",
      "type": "event"
    },
    {
      "anonymous": false,
      "inputs": [
        {
          "indexed": true,
          "internalType": "address",
          "name": "from",
          "type": "address"
        },
        {
          "indexed": true,
          "internalType": "address",
          "name": "to",
          "type": "address"
        },
        {
          "indexed": true,
          "internalType": "uint256",
          "name": "tokenId",
          "type": "uint256"
        }
      ],
      "name": "Transfer",
      "type": "event"
    },
    {
      "inputs": [
        {
          "internalType": "address",
          "name": "to",
          "type": "address"
        },
        {
          "internalType": "uint256",
          "name": "tokenId",
          "type": "uint256"
        }
      ],
      "name": "approve",
      "outputs": [],
      "stateMutability": "nonpayable",
      "type": "function"
    },
    {
      "inputs": [
        {
          "internalType": "address",
          "name": "owner",
          "type": "address"
        }
      ],
      "name": "balanceOf",
      "outputs": [
        {
          "internalType": "uint256",
          "name": "",
          "type": "uint256"
        }
      ],
      "stateMutability": "view",
      "type": "function"
    },
    {
      "inputs": [
        {
          "internalType": "address",
          "name": "from",
          "type": "address"
        }
      ],
      "name": "burn",
      "outputs": [],
      "stateMutability": "nonpayable",
      "type": "function"
    },
    {
      "inputs": [
        {
          "internalType": "uint256",
          "name": "tokenId",
          "type": "uint256"
        }
      ],
      "name": "getApproved",
      "outputs": [
        {
          "internalType": "address",
          "name": "",
          "type": "address"
        }
      ],
      "stateMutability": "view",
      "type": "function"
    },
    {
      "inputs": [
        {
          "internalType": "address",
          "name": "owner",
          "type": "address"
        },
        {
          "internalType": "address",
          "name": "operator",
          "type": "address"
        }
      ],
      "name": "isApprovedForAll",
      "outputs": [
        {
          "internalType": "bool",
          "name": "",
          "type": "bool"
        }
      ],
      "stateMutability": "view",
      "type": "function"
    },
    {
      "inputs": [
        {
          "internalType": "address",
          "name": "to",
          "type": "address"
        }
      ],
      "name": "mint",
      "outputs": [
        {
          "internalType": "uint256",
          "name": "",
          "type": "uint256"
        }
      ],
      "stateMutability": "nonpayable",
      "type": "function"
    },
    {
      "inputs": [],
      "name": "name",
      "outputs": [
        {
          "internalType": "string",
          "name": "",
          "type": "string"
        }
      ],
      "stateMutability": "view",
      "type": "function"
    },
    {
      "inputs": [],
      "name": "owner",
      "outputs": [
        {
          "internalType": "address",
          "name": "",
          "type": "address"
        }
      ],
      "stateMutability": "view",
      "type": "function"
    },
    {
      "inputs": [
        {
          "internalType": "uint256",
          "name": "tokenId",
          "type": "uint256"
        }
      ],
      "name": "ownerOf",
      "outputs": [
        {
          "internalType": "address",
          "name": "",
          "type": "address"
        }
      ],
      "stateMutability": "view",
      "type": "function"
    },
    {
      "inputs": [],
      "name": "renounceOwnership",
      "outputs": [],
      "stateMutability": "nonpayable",
      "type": "function"
    },
    {
      "inputs": [
        {
          "internalType": "address",
          "name": "from",
          "type": "address"
        },
        {
          "internalType": "address",
          "name": "to",
          "type": "address"
        },
        {
          "internalType": "uint256",
          "name": "tokenId",
          "type": "uint256"
        }
      ],
      "name": "safeTransferFrom",
      "outputs": [],
      "stateMutability": "nonpayable",
      "type": "function"
    },
    {
      "inputs": [
        {
          "internalType": "address",
          "name": "from",
          "type": "address"
        },
        {
          "internalType": "address",
          "name": "to",
          "type": "address"
        },
        {
          "internalType": "uint256",
          "name": "tokenId",
          "type": "uint256"
        },
        {
          "internalType": "bytes",
          "name": "data",
          "type": "bytes"
        }
      ],
      "name": "safeTransferFrom",
      "outputs": [],
      "stateMutability": "nonpayable",
      "type": "function"
    },
    {
      "inputs": [
        {
          "internalType": "address",
          "name": "operator",
          "type": "address"
        },
        {
          "internalType": "bool",
          "name": "approved",
          "type": "bool"
        }
      ],
      "name": "setApprovalForAll",
      "outputs": [],
      "stateMutability": "nonpayable",
      "type": "function"
    },
    {
      "inputs": [
        {
          "internalType": "bytes4",
          "name": "interfaceId",
          "type": "bytes4"
        }
      ],
      "name": "supportsInterface",
      "outputs": [
        {
          "internalType": "bool",
          "name": "",
          "type": "bool"
        }
      ],
      "stateMutability": "view",
      "type": "function"
    },
    {
      "inputs": [],
      "name": "symbol",
      "outputs": [
        {
          "internalType": "string",
          "name": "",
          "type": "string"
        }
      ],
      "stateMutability": "view",
      "type": "function"
    },
    {
      "inputs": [
        {
          "internalType": "uint256",
          "name": "index",
          "type": "uint256"
        }
      ],
      "name": "tokenByIndex",
      "outputs": [
        {
          "internalType": "uint256",
          "name": "",
          "type": "uint256"
        }
      ],
      "stateMutability": "view",
      "type": "function"
    },
    {
      "inputs": [
        {
          "internalType": "address",
          "name": "owner",
          "type": "address"
        },
        {
          "internalType": "uint256",
          "name": "index",
          "type": "uint256"
        }
      ],
      "name": "tokenOfOwnerByIndex",
      "outputs": [
        {
          "internalType": "uint256",
          "name": "",
          "type": "uint256"
        }
      ],
      "stateMutability": "view",
      "type": "function"
    },
    {
      "inputs": [
        {
          "internalType": "uint256",
          "name": "tokenId",
          "type": "uint256"
        }
      ],
      "name": "tokenURI",
      "outputs": [
        {
          "internalType": "string",
          "name": "",
          "type": "string"
        }
      ],
      "stateMutability": "view",
      "type": "function"
    },
    {
      "inputs": [],
      "name": "totalSupply",
      "outputs": [
        {
          "internalType": "uint256",
          "name": "",
          "type": "uint256"
        }
      ],
      "stateMutability": "view",
      "type": "function"
    },
    {
      "inputs": [
        {
          "internalType": "address",
          "name": "from",
          "type": "address"
        },
        {
          "internalType": "address",
          "name": "to",
          "type": "address"
        },
        {
          "internalType": "uint256",
          "name": "tokenId",
          "type": "uint256"
        }
      ],
      "name": "transferFrom",
      "outputs": [],
      "stateMutability": "nonpayable",
      "type": "function"
    },
    {
      "inputs": [
        {
          "internalType": "address",
          "name": "newOwner",
          "type": "address"
        }
      ],
      "name": "transferOwnership",
      "outputs": [],
      "stateMutability": "nonpayable",
      "type": "function"
    }
  ],
  "bytecode": "0x608060405234801561001057600080fd5b50336040518060400160405280600781526020017f56495050617373000000000000000000000000000000000000000000000000008152506040518060400160405280600381526020017f5649500000000000000000000000000000000000000000000000000000000000815250816000908161008d919061043d565b50806001908161009d919061043d565b505050600073ffffffffffffffffffffffffffffffffffffffff168173ffffffffffffffffffffffffffffffffffffffff16036101125760006040517f1e4fbdf70000000000000000000000000000000000000000000000000000000081526004016101099190610550565b60405180910390fd5b6101218161012760201b60201c565b5061056b565b6000600a60009054906101000a900473ffffffffffffffffffffffffffffffffffffffff16905081600a60006101000a81548173ffffffffffffffffffffffffffffffffffffffff021916908373ffffffffffffffffffffffffffffffffffffffff1602179055508173ffffffffffffffffffffffffffffffffffffffff168173ffffffffffffffffffffffffffffffffffffffff167f8be0079c531659141344cd1fd0a4f28419497f9722a3daafe3b4186f6b6457e060405160405180910390a35050565b600081519050919050565b7f4e487b7100000000000000000000000000000000000000000000000000000000600052604160045260246000fd5b7f4e487b7100000000000000000000000000000000000000000000000000000000600052602260045260246000fd5b6000600282049050600182168061026e57607f821691505b60208210810361028157610280610227565b5b50919050565b60008190508160005260206000209050919050565b60006020601f8301049050919050565b600082821b905092915050565b6000600883026102e97fffffffffffffffffffffffffffffffffffffffffffffffffffffffffffffffff826102ac565b6102f386836102ac565b95508019841693508086168417925050509392505050565b6000819050919050565b6000819050919050565b600061033a6103356103308461030b565b610315565b61030b565b9050919050565b6000819050919050565b6103548361031f565b61036861036082610341565b8484546102b9565b825550505050565b600090565b61037d610370565b61038881848461034b565b505050565b5b818110156103ac576103a1600082610375565b60018101905061038e565b5050565b601f8211156103f1576103c281610287565b6103cb8461029c565b810160208510156103da578190505b6103ee6103e68561029c565b83018261038d565b50505b505050565b600082821c905092915050565b6000610414600019846008026103f6565b1980831691505092915050565b600061042d8383610403565b9150826002028217905092915050565b610446826101ed565b67ffffffffffffffff81111561045f5761045e6101f8565b5b6104698254610256565b6104748282856103b0565b600060209050601f8311600181146104a75760008415610495578287015190505b61049f8582610421565b865550610507565b601f1984166104b586610287565b60005b828110156104dd578489015182556001820191506020850194506020810190506104b8565b868310156104fa57848901516104f6601f891682610403565b8355505b6001600288020188555050505b505050505050565b600073ffffffffffffffffffffffffffffffffffffffff82169050919050565b600061053a8261050f565b9050919050565b61054a8161052f565b82525050565b60006020820190506105656000830184610541565b92915050565b612b318061057a6000396000f3fe608060405234801561001057600080fd5b50600436106101375760003560e01c80636a627842116100b857806395d89b411161007c57806395d89b4114610360578063a22cb4651461037e578063b88d4fde1461039a578063c87b56dd146103b6578063e985e9c5146103e6578063f2fde38b1461041657610137565b80636a627842146102bc57806370a08231146102ec578063715018a61461031c57806389afcb44146103265780638da5cb5b1461034257610137565b806323b872dd116100ff57806323b872dd146101f45780632f745c591461021057806342842e0e146102405780634f6ccce71461025c5780636352211e1461028c57610137565b806301ffc9a71461013c57806306fdde031461016c578063081812fc1461018a578063095ea7b3146101ba57806318160ddd146101d6575b600080fd5b6101566004803603810190610151919061212e565b610432565b6040516101639190612176565b60405180910390f35b610174610444565b6040516101819190612221565b60405180910390f35b6101a4600480360381019061019f9190612279565b6104d6565b6040516101b191906122e7565b60405180910390f35b6101d460048036038101906101cf919061232e565b6104f2565b005b6101de610508565b6040516101eb919061237d565b60405180910390f35b61020e60048036038101906102099190612398565b610515565b005b61022a6004803603810190610225919061232e565b610617565b604051610237919061237d565b60405180910390f35b61025a60048036038101906102559190612398565b6106c0565b005b61027660048036038101906102719190612279565b6106e0565b604051610283919061237d565b60405180910390f35b6102a660048036038101906102a19190612279565b610756565b6040516102b391906122e7565b60405180910390f35b6102d660048036038101906102d191906123eb565b610768565b6040516102e3919061237d565b60405180910390f35b610306600480360381019061030191906123eb565b6107e9565b604051610313919061237d565b60405180910390f35b6103246108a3565b005b610340600480360381019061033b91906123eb565b6108b7565b005b61034a610926565b60405161035791906122e7565b60405180910390f35b610368610950565b6040516103759190612221565b60405180910390f35b61039860048036038101906103939190612444565b6109e2565b005b6103b460048036038101906103af91906125b9565b6109f8565b005b6103d060048036038101906103cb9190612279565b610a1d565b6040516103dd9190612221565b60405180910390f35b61040060048036038101906103fb919061263c565b610a86565b60405161040d9190612176565b60405180910390f35b610430600480360381019061042b91906123eb565b610b1a565b005b600061043d82610ba0565b9050919050565b606060008054610453906126ab565b80601f016020809104026020016040519081016040528092919081815260200182805461047f906126ab565b80156104cc5780601f106104a1576101008083540402835291602001916104cc565b820191906000526020600020905b8154815290600101906020018083116104af57829003601f168201915b5050505050905090565b60006104e182610c1a565b506104eb82610ca2565b9050919050565b61050482826104ff610cdf565b610ce7565b5050565b6000600880549050905090565b600073ffffffffffffffffffffffffffffffffffffffff168273ffffffffffffffffffffffffffffffffffffffff16036105875760006040517f64a0ae9200000000000000000000000000000000000000000000000000000000815260040161057e91906122e7565b60405180910390fd5b600061059b8383610596610cdf565b610cf9565b90508373ffffffffffffffffffffffffffffffffffffffff168173ffffffffffffffffffffffffffffffffffffffff1614610611578382826040517f64283d7b000000000000000000000000000000000000000000000000000000008152600401610608939291906126dc565b60405180910390fd5b50505050565b6000610622836107e9565b82106106675782826040517fa57d13dc00000000000000000000000000000000000000000000000000000000815260040161065e929190612713565b60405180910390fd5b600660008473ffffffffffffffffffffffffffffffffffffffff1673ffffffffffffffffffffffffffffffffffffffff168152602001908152602001600020600083815260200190815260200160002054905092915050565b6106db838383604051806020016040528060008152506109f8565b505050565b60006106ea610508565b8210610730576000826040517fa57d13dc000000000000000000000000000000000000000000000000000000008152600401610727929190612713565b60405180910390fd5b600882815481106107445761074361273c565b5b90600052602060002001549050919050565b600061076182610c1a565b9050919050565b6000610772610dc2565b600061077d836107e9565b146107bd576040517f08c379a00000000000000000000000000000000000000000000000000000000081526004016107b4906127b7565b60405180910390fd5b6000600b600081546107ce90612806565b91905081905590506107e08382610e49565b80915050919050565b60008073ffffffffffffffffffffffffffffffffffffffff168273ffffffffffffffffffffffffffffffffffffffff160361085c5760006040517f89c62b6400000000000000000000000000000000000000000000000000000000815260040161085391906122e7565b60405180910390fd5b600360008373ffffffffffffffffffffffffffffffffffffffff1673ffffffffffffffffffffffffffffffffffffffff168152602001908152602001600020549050919050565b6108ab610dc2565b6108b56000610e67565b565b6108bf610dc2565b60016108ca826107e9565b1461090a576040517f08c379a00000000000000000000000000000000000000000000000000000000081526004016109019061289a565b60405180910390fd5b6000610917826000610617565b905061092281610f2d565b5050565b6000600a60009054906101000a900473ffffffffffffffffffffffffffffffffffffffff16905090565b60606001805461095f906126ab565b80601f016020809104026020016040519081016040528092919081815260200182805461098b906126ab565b80156109d85780601f106109ad576101008083540402835291602001916109d8565b820191906000526020600020905b8154815290600101906020018083116109bb57829003601f168201915b5050505050905090565b6109f46109ed610cdf565b8383610fb3565b5050565b610a03848484610515565b610a17610a0e610cdf565b85858585611122565b50505050565b6060610a2882610c1a565b506000610a336112d3565b90506000815111610a535760405180602001604052806000815250610a7e565b80610a5d846112ea565b604051602001610a6e9291906128f6565b6040516020818303038152906040525b915050919050565b6000600560008473ffffffffffffffffffffffffffffffffffffffff1673ffffffffffffffffffffffffffffffffffffffff16815260200190815260200160002060008373ffffffffffffffffffffffffffffffffffffffff1673ffffffffffffffffffffffffffffffffffffffff16815260200190815260200160002060009054906101000a900460ff16905092915050565b610b22610dc2565b600073ffffffffffffffffffffffffffffffffffffffff168173ffffffffffffffffffffffffffffffffffffffff1603610b945760006040517f1e4fbdf7000000000000000000000000000000000000000000000000000000008152600401610b8b91906122e7565b60405180910390fd5b610b9d81610e67565b50565b60007f780e9d63000000000000000000000000000000000000000000000000000000007bffffffffffffffffffffffffffffffffffffffffffffffffffffffff1916827bffffffffffffffffffffffffffffffffffffffffffffffffffffffff19161480610c135750610c12826113b8565b5b9050919050565b600080610c268361149a565b9050600073ffffffffffffffffffffffffffffffffffffffff168173ffffffffffffffffffffffffffffffffffffffff1603610c9957826040517f7e273289000000000000000000000000000000000000000000000000000000008152600401610c90919061237d565b60405180910390fd5b80915050919050565b60006004600083815260200190815260200160002060009054906101000a900473ffffffffffffffffffffffffffffffffffffffff169050919050565b600033905090565b610cf483838360016114d7565b505050565b600080610d058461149a565b9050600073ffffffffffffffffffffffffffffffffffffffff168173ffffffffffffffffffffffffffffffffffffffff161480610d6e5750600073ffffffffffffffffffffffffffffffffffffffff168573ffffffffffffffffffffffffffffffffffffffff16145b610dad576040517f08c379a0000000000000000000000000000000000000000000000000000000008152600401610da490612966565b60405180910390fd5b610db885858561169c565b9150509392505050565b610dca610cdf565b73ffffffffffffffffffffffffffffffffffffffff16610de8610926565b73ffffffffffffffffffffffffffffffffffffffff1614610e4757610e0b610cdf565b6040517f118cdaa7000000000000000000000000000000000000000000000000000000008152600401610e3e91906122e7565b60405180910390fd5b565b610e638282604051806020016040528060008152506117b9565b5050565b6000600a60009054906101000a900473ffffffffffffffffffffffffffffffffffffffff16905081600a60006101000a81548173ffffffffffffffffffffffffffffffffffffffff021916908373ffffffffffffffffffffffffffffffffffffffff1602179055508173ffffffffffffffffffffffffffffffffffffffff168173ffffffffffffffffffffffffffffffffffffffff167f8be0079c531659141344cd1fd0a4f28419497f9722a3daafe3b4186f6b6457e060405160405180910390a35050565b6000610f3c6000836000610cf9565b9050600073ffffffffffffffffffffffffffffffffffffffff168173ffffffffffffffffffffffffffffffffffffffff1603610faf57816040517f7e273289000000000000000000000000000000000000000000000000000000008152600401610fa6919061237d565b60405180910390fd5b5050565b600073ffffffffffffffffffffffffffffffffffffffff168273ffffffffffffffffffffffffffffffffffffffff160361102457816040517f5b08ba1800000000000000000000000000000000000000000000000000000000815260040161101b91906122e7565b60405180910390fd5b80600560008573ffffffffffffffffffffffffffffffffffffffff1673ffffffffffffffffffffffffffffffffffffffff16815260200190815260200160002060008473ffffffffffffffffffffffffffffffffffffffff1673ffffffffffffffffffffffffffffffffffffffff16815260200190815260200160002060006101000a81548160ff0219169083151502179055508173ffffffffffffffffffffffffffffffffffffffff168373ffffffffffffffffffffffffffffffffffffffff167f17307eab39ab6107e8899845ad3d59bd9653f200f220920489ca2b5937696c31836040516111159190612176565b60405180910390a3505050565b60008373ffffffffffffffffffffffffffffffffffffffff163b11156112cc578273ffffffffffffffffffffffffffffffffffffffff1663150b7a02868685856040518563ffffffff1660e01b815260040161118194939291906129db565b6020604051808303816000875af19250505080156111bd57506040513d601f19601f820116820180604052508101906111ba9190612a3c565b60015b611241573d80600081146111ed576040519150601f19603f3d011682016040523d82523d6000602084013e6111f2565b606091505b50600081510361123957836040517f64a0ae9200000000000000000000000000000000000000000000000000000000815260040161123091906122e7565b60405180910390fd5b805181602001fd5b63150b7a0260e01b7bffffffffffffffffffffffffffffffffffffffffffffffffffffffff1916817bffffffffffffffffffffffffffffffffffffffffffffffffffffffff1916146112ca57836040517f64a0ae920000000000000000000000000000000000000000000000000000000081526004016112c191906122e7565b60405180910390fd5b505b5050505050565b606060405180602001604052806000815250905090565b6060600060016112f9846117dd565b01905060008167ffffffffffffffff8111156113185761131761248e565b5b6040519080825280601f01601f19166020018201604052801561134a5781602001600182028036833780820191505090505b509050600082602001820190505b6001156113ad578080600190039150507f3031323334353637383961626364656600000000000000000000000000000000600a86061a8153600a85816113a1576113a0612a69565b5b04945060008503611358575b819350505050919050565b60007f80ac58cd000000000000000000000000000000000000000000000000000000007bffffffffffffffffffffffffffffffffffffffffffffffffffffffff1916827bffffffffffffffffffffffffffffffffffffffffffffffffffffffff1916148061148357507f5b5e139f000000000000000000000000000000000000000000000000000000007bffffffffffffffffffffffffffffffffffffffffffffffffffffffff1916827bffffffffffffffffffffffffffffffffffffffffffffffffffffffff1916145b80611493575061149282611930565b5b9050919050565b60006002600083815260200190815260200160002060009054906101000a900473ffffffffffffffffffffffffffffffffffffffff169050919050565b80806115105750600073ffffffffffffffffffffffffffffffffffffffff168273ffffffffffffffffffffffffffffffffffffffff1614155b1561164457600061152084610c1a565b9050600073ffffffffffffffffffffffffffffffffffffffff168373ffffffffffffffffffffffffffffffffffffffff161415801561158b57508273ffffffffffffffffffffffffffffffffffffffff168173ffffffffffffffffffffffffffffffffffffffff1614155b801561159e575061159c8184610a86565b155b156115e057826040517fa9fbf51f0000000000000000000000000000000000000000000000000000000081526004016115d791906122e7565b60405180910390fd5b811561164257838573ffffffffffffffffffffffffffffffffffffffff168273ffffffffffffffffffffffffffffffffffffffff167f8c5be1e5ebec7d5bd14f71427d1e84f3dd0314c0f7b2291e5b200ac8c7c3b92560405160405180910390a45b505b836004600085815260200190815260200160002060006101000a81548173ffffffffffffffffffffffffffffffffffffffff021916908373ffffffffffffffffffffffffffffffffffffffff16021790555050505050565b6000806116aa85858561199a565b9050600073ffffffffffffffffffffffffffffffffffffffff168173ffffffffffffffffffffffffffffffffffffffff16036116ee576116e984611bb4565b61172d565b8473ffffffffffffffffffffffffffffffffffffffff168173ffffffffffffffffffffffffffffffffffffffff161461172c5761172b8185611bfd565b5b5b600073ffffffffffffffffffffffffffffffffffffffff168573ffffffffffffffffffffffffffffffffffffffff160361176f5761176a84611ce8565b6117ae565b8473ffffffffffffffffffffffffffffffffffffffff168173ffffffffffffffffffffffffffffffffffffffff16146117ad576117ac8585611db9565b5b5b809150509392505050565b6117c38383611e44565b6117d86117ce610cdf565b6000858585611122565b505050565b600080600090507a184f03e93ff9f4daa797ed6e38ed64bf6a1f010000000000000000831061183b577a184f03e93ff9f4daa797ed6e38ed64bf6a1f010000000000000000838161183157611830612a69565b5b0492506040810190505b6d04ee2d6d415b85acef81000000008310611878576d04ee2d6d415b85acef8100000000838161186e5761186d612a69565b5b0492506020810190505b662386f26fc1000083106118a757662386f26fc10000838161189d5761189c612a69565b5b0492506010810190505b6305f5e10083106118d0576305f5e10083816118c6576118c5612a69565b5b0492506008810190505b61271083106118f55761271083816118eb576118ea612a69565b5b0492506004810190505b60648310611918576064838161190e5761190d612a69565b5b0492506002810190505b600a8310611927576001810190505b80915050919050565b60007f01ffc9a7000000000000000000000000000000000000000000000000000000007bffffffffffffffffffffffffffffffffffffffffffffffffffffffff1916827bffffffffffffffffffffffffffffffffffffffffffffffffffffffff1916149050919050565b6000806119a68461149a565b9050600073ffffffffffffffffffffffffffffffffffffffff168373ffffffffffffffffffffffffffffffffffffffff16146119e8576119e7818486611f3d565b5b600073ffffffffffffffffffffffffffffffffffffffff168173ffffffffffffffffffffffffffffffffffffffff1614611a7957611a2a6000856000806114d7565b6001600360008373ffffffffffffffffffffffffffffffffffffffff1673ffffffffffffffffffffffffffffffffffffffff168152602001908152602001600020600082825403925050819055505b600073ffffffffffffffffffffffffffffffffffffffff168573ffffffffffffffffffffffffffffffffffffffff1614611afc576001600360008773ffffffffffffffffffffffffffffffffffffffff1673ffffffffffffffffffffffffffffffffffffffff168152602001908152602001600020600082825401925050819055505b846002600086815260200190815260200160002060006101000a81548173ffffffffffffffffffffffffffffffffffffffff021916908373ffffffffffffffffffffffffffffffffffffffff160217905550838573ffffffffffffffffffffffffffffffffffffffff168273ffffffffffffffffffffffffffffffffffffffff167fddf252ad1be2c89b69c2b068fc378daa952ba7f163c4a11628f55a4df523b3ef60405160405180910390a4809150509392505050565b6008805490506009600083815260200190815260200160002081905550600881908060018154018082558091505060019003906000526020600020016000909190919091505550565b6000611c08836107e9565b90506000600760008481526020019081526020016000205490506000600660008673ffffffffffffffffffffffffffffffffffffffff1673ffffffffffffffffffffffffffffffffffffffff1681526020019081526020016000209050828214611cb45760008160008581526020019081526020016000205490508082600085815260200190815260200160002081905550826007600083815260200190815260200160002081905550505b6007600085815260200190815260200160002060009055806000848152602001908152602001600020600090555050505050565b60006001600880549050611cfc9190612a98565b9050600060096000848152602001908152602001600020549050600060088381548110611d2c57611d2b61273c565b5b906000526020600020015490508060088381548110611d4e57611d4d61273c565b5b906000526020600020018190555081600960008381526020019081526020016000208190555060096000858152602001908152602001600020600090556008805480611d9d57611d9c612acc565b5b6001900381819060005260206000200160009055905550505050565b60006001611dc6846107e9565b611dd09190612a98565b905081600660008573ffffffffffffffffffffffffffffffffffffffff1673ffffffffffffffffffffffffffffffffffffffff168152602001908152602001600020600083815260200190815260200160002081905550806007600084815260200190815260200160002081905550505050565b600073ffffffffffffffffffffffffffffffffffffffff168273ffffffffffffffffffffffffffffffffffffffff1603611eb65760006040517f64a0ae92000000000000000000000000000000000000000000000000000000008152600401611ead91906122e7565b60405180910390fd5b6000611ec483836000610cf9565b9050600073ffffffffffffffffffffffffffffffffffffffff168173ffffffffffffffffffffffffffffffffffffffff1614611f385760006040517f73c6ac6e000000000000000000000000000000000000000000000000000000008152600401611f2f91906122e7565b60405180910390fd5b505050565b611f48838383612001565b611ffc57600073ffffffffffffffffffffffffffffffffffffffff168373ffffffffffffffffffffffffffffffffffffffff1603611fbd57806040517f7e273289000000000000000000000000000000000000000000000000000000008152600401611fb4919061237d565b60405180910390fd5b81816040517f177e802f000000000000000000000000000000000000000000000000000000008152600401611ff3929190612713565b60405180910390fd5b505050565b60008073ffffffffffffffffffffffffffffffffffffffff168373ffffffffffffffffffffffffffffffffffffffff16141580156120b957508273ffffffffffffffffffffffffffffffffffffffff168473ffffffffffffffffffffffffffffffffffffffff16148061207a57506120798484610a86565b5b806120b857508273ffffffffffffffffffffffffffffffffffffffff166120a083610ca2565b73ffffffffffffffffffffffffffffffffffffffff16145b5b90509392505050565b6000604051905090565b600080fd5b600080fd5b60007fffffffff0000000000000000000000000000000000000000000000000000000082169050919050565b61210b816120d6565b811461211657600080fd5b50565b60008135905061212881612102565b92915050565b600060208284031215612144576121436120cc565b5b600061215284828501612119565b91505092915050565b60008115159050919050565b6121708161215b565b82525050565b600060208201905061218b6000830184612167565b92915050565b600081519050919050565b600082825260208201905092915050565b60005b838110156121cb5780820151818401526020810190506121b0565b60008484015250505050565b6000601f19601f8301169050919050565b60006121f382612191565b6121fd818561219c565b935061220d8185602086016121ad565b612216816121d7565b840191505092915050565b6000602082019050818103600083015261223b81846121e8565b905092915050565b6000819050919050565b61225681612243565b811461226157600080fd5b50565b6000813590506122738161224d565b92915050565b60006020828403121561228f5761228e6120cc565b5b600061229d84828501612264565b91505092915050565b600073ffffffffffffffffffffffffffffffffffffffff82169050919050565b60006122d1826122a6565b9050919050565b6122e1816122c6565b82525050565b60006020820190506122fc60008301846122d8565b92915050565b61230b816122c6565b811461231657600080fd5b50565b60008135905061232881612302565b92915050565b60008060408385031215612345576123446120cc565b5b600061235385828601612319565b925050602061236485828601612264565b9150509250929050565b61237781612243565b82525050565b6000602082019050612392600083018461236e565b92915050565b6000806000606084860312156123b1576123b06120cc565b5b60006123bf86828701612319565b93505060206123d086828701612319565b92505060406123e186828701612264565b9150509250925092565b600060208284031215612401576124006120cc565b5b600061240f84828501612319565b91505092915050565b6124218161215b565b811461242c57600080fd5b50565b60008135905061243e81612418565b92915050565b6000806040838503121561245b5761245a6120cc565b5b600061246985828601612319565b925050602061247a8582860161242f565b9150509250929050565b600080fd5b600080fd5b7f4e487b7100000000000000000000000000000000000000000000000000000000600052604160045260246000fd5b6124c6826121d7565b810181811067ffffffffffffffff821117156124e5576124e461248e565b5b80604052505050565b60006124f86120c2565b905061250482826124bd565b919050565b600067ffffffffffffffff8211156125245761252361248e565b5b61252d826121d7565b9050602081019050919050565b82818337600083830152505050565b600061255c61255784612509565b6124ee565b90508281526020810184848401111561257857612577612489565b5b61258384828561253a565b509392505050565b600082601f8301126125a05761259f612484565b5b81356125b0848260208601612549565b91505092915050565b600080600080608085870312156125d3576125d26120cc565b5b60006125e187828801612319565b94505060206125f287828801612319565b935050604061260387828801612264565b925050606085013567ffffffffffffffff811115612624576126236120d1565b5b6126308782880161258b565b91505092959194509250565b60008060408385031215612653576126526120cc565b5b600061266185828601612319565b925050602061267285828601612319565b9150509250929050565b7f4e487b7100000000000000000000000000000000000000000000000000000000600052602260045260246000fd5b600060028204905060018216806126c357607f821691505b6020821081036126d6576126d561267c565b5b50919050565b60006060820190506126f160008301866122d8565b6126fe602083018561236e565b61270b60408301846122d8565b949350505050565b600060408201905061272860008301856122d8565b612735602083018461236e565b9392505050565b7f4e487b7100000000000000000000000000000000000000000000000000000000600052603260045260246000fd5b7f416c726561647920686f6c647320612070617373000000000000000000000000600082015250565b60006127a160148361219c565b91506127ac8261276b565b602082019050919050565b600060208201905081810360008301526127d081612794565b9050919050565b7f4e487b7100000000000000000000000000000000000000000000000000000000600052601160045260246000fd5b600061281182612243565b91507fffffffffffffffffffffffffffffffffffffffffffffffffffffffffffffffff8203612843576128426127d7565b5b600182019050919050565b7f4e6f207061737320746f206275726e0000000000000000000000000000000000600082015250565b6000612884600f8361219c565b915061288f8261284e565b602082019050919050565b600060208201905081810360008301526128b381612877565b9050919050565b600081905092915050565b60006128d082612191565b6128da81856128ba565b93506128ea8185602086016121ad565b80840191505092915050565b600061290282856128c5565b915061290e82846128c5565b91508190509392505050565b7f4e6f6e2d7472616e7366657261626c6500000000000000000000000000000000600082015250565b600061295060108361219c565b915061295b8261291a565b602082019050919050565b6000602082019050818103600083015261297f81612943565b9050919050565b600081519050919050565b600082825260208201905092915050565b60006129ad82612986565b6129b78185612991565b93506129c78185602086016121ad565b6129d0816121d7565b840191505092915050565b60006080820190506129f060008301876122d8565b6129fd60208301866122d8565b612a0a604083018561236e565b8181036060830152612a1c81846129a2565b905095945050505050565b600081519050612a3681612102565b92915050565b600060208284031215612a5257612a516120cc565b5b6000612a6084828501612a27565b91505092915050565b7f4e487b7100000000000000000000000000000000000000000000000000000000600052601260045260246000fd5b6000612aa382612243565b9150612aae83612243565b9250828203905081811115612ac657612ac56127d7565b5b92915050565b7f4e487b7100000000000000000000000000000000000000000000000000000000600052603160045260246000fdfea2646970667358221220b4423f00e44d42d89ae36ab91ec860f4c611233b257cbe6b1997af87e1cb73b464736f6c634300081c0033",
  "linkReferences": {},
  "deployedLinkReferences": {}
}